{
  "contractName": "UserCertificates",
  "abi": [
    {
      "constant": true,
      "inputs": [],
      "name": "price",
      "outputs": [
        {
          "name": "",
          "type": "uint256"
        }
      ],
      "payable": false,
      "stateMutability": "view",
      "type": "function"
    },
    {
      "inputs": [],
      "payable": false,
      "stateMutability": "nonpayable",
      "type": "constructor"
    },
    {
      "anonymous": false,
      "inputs": [
        {
          "indexed": true,
          "name": "_from",
          "type": "address"
        },
        {
          "indexed": true,
          "name": "_to",
          "type": "address"
        },
        {
          "indexed": false,
          "name": "_ipfsHash",
          "type": "string"
        }
      ],
      "name": "CertificateIssued",
      "type": "event"
    },
    {
      "anonymous": false,
      "inputs": [
        {
          "indexed": true,
          "name": "_from",
          "type": "address"
        },
        {
          "indexed": true,
          "name": "_to",
          "type": "address"
        },
        {
          "indexed": false,
          "name": "_ipfsHash",
          "type": "string"
        }
      ],
      "name": "CertificateRevoked",
      "type": "event"
    },
    {
      "constant": false,
      "inputs": [
        {
          "name": "_price",
          "type": "uint256"
        }
      ],
      "name": "setPrice",
      "outputs": [],
      "payable": false,
      "stateMutability": "nonpayable",
      "type": "function"
    },
    {
      "constant": false,
      "inputs": [
        {
          "name": "amount",
          "type": "uint256"
        }
      ],
      "name": "withdrawFunds",
      "outputs": [
        {
          "name": "",
          "type": "bool"
        }
      ],
      "payable": false,
      "stateMutability": "nonpayable",
      "type": "function"
    },
    {
      "constant": true,
      "inputs": [
        {
          "name": "ipfsHash",
          "type": "string"
        }
      ],
      "name": "certificateExists",
      "outputs": [
        {
          "name": "",
          "type": "bool"
        }
      ],
      "payable": false,
      "stateMutability": "view",
      "type": "function"
    },
    {
      "constant": false,
      "inputs": [
        {
          "name": "user",
          "type": "address"
        },
        {
          "name": "ipfsHash",
          "type": "string"
        }
      ],
      "name": "addCertificate",
      "outputs": [],
      "payable": true,
      "stateMutability": "payable",
      "type": "function"
    },
    {
      "constant": false,
      "inputs": [
        {
          "name": "user",
          "type": "address"
        },
        {
          "name": "ipfsHash",
          "type": "string"
        }
      ],
      "name": "revokeCertificate",
      "outputs": [],
      "payable": false,
      "stateMutability": "nonpayable",
      "type": "function"
    },
    {
      "constant": true,
      "inputs": [
        {
          "name": "user",
          "type": "address"
        }
      ],
      "name": "getNumberCertificatesUser",
      "outputs": [
        {
          "name": "",
          "type": "uint256"
        }
      ],
      "payable": false,
      "stateMutability": "view",
      "type": "function"
    },
    {
      "constant": true,
      "inputs": [
        {
          "name": "user",
          "type": "address"
        },
        {
          "name": "index",
          "type": "uint256"
        }
      ],
      "name": "getUserCertificateAtIndex",
      "outputs": [
        {
          "name": "",
          "type": "address"
        },
        {
          "name": "",
          "type": "string"
        }
      ],
      "payable": false,
      "stateMutability": "view",
      "type": "function"
    }
  ],
  "bytecode": "0x6060604052341561000f57600080fd5b336000806101000a81548173ffffffffffffffffffffffffffffffffffffffff021916908373ffffffffffffffffffffffffffffffffffffffff1602179055506000600181905550611233806100666000396000f30060606040526004361061008e576000357c0100000000000000000000000000000000000000000000000000000000900463ffffffff1680630655f03714610093578063155dd5ee146101085780631f16fb4d146101435780634a14188d146101bf57806391b7f5ed146102305780639f1bf46014610253578063a035b1fe14610341578063b358baf01461036a575b600080fd5b341561009e57600080fd5b6100ee600480803590602001908201803590602001908080601f016020809104026020016040519081016040528093929190818152602001838380828437820191505050505050919050506103b7565b604051808215151515815260200191505060405180910390f35b341561011357600080fd5b6101296004808035906020019091905050610451565b604051808215151515815260200191505060405180910390f35b341561014e57600080fd5b6101bd600480803573ffffffffffffffffffffffffffffffffffffffff1690602001909190803590602001908201803590602001908080601f0160208091040260200160405190810160405280939291908181526020018383808284378201915050505050509190505061053e565b005b61022e600480803573ffffffffffffffffffffffffffffffffffffffff1690602001909190803590602001908201803590602001908080601f01602080910402602001604051908101604052809392919081815260200183838082843782019150505050505091905050610972565b005b341561023b57600080fd5b6102516004808035906020019091905050610c1a565b005b341561025e57600080fd5b610293600480803573ffffffffffffffffffffffffffffffffffffffff16906020019091908035906020019091905050610c7f565b604051808373ffffffffffffffffffffffffffffffffffffffff1673ffffffffffffffffffffffffffffffffffffffff16815260200180602001828103825283818151815260200191508051906020019080838360005b838110156103055780820151818401526020810190506102ea565b50505050905090810190601f1680156103325780820380516001836020036101000a031916815260200191505b50935050505060405180910390f35b341561034c57600080fd5b610354610e08565b6040518082815260200191505060405180910390f35b341561037557600080fd5b6103a1600480803573ffffffffffffffffffffffffffffffffffffffff16906020019091905050610e0e565b6040518082815260200191505060405180910390f35b6000600115156003836040518082805190602001908083835b6020831015156103f557805182526020820191506020810190506020830392506103d0565b6001836020036101000a038019825116818451168082178552505050505050905001915050908152602001604051809103902060009054906101000a900460ff1615151415610447576001905061044c565b600090505b919050565b60008060009054906101000a900473ffffffffffffffffffffffffffffffffffffffff1673ffffffffffffffffffffffffffffffffffffffff163373ffffffffffffffffffffffffffffffffffffffff161415156104ae57600080fd5b3073ffffffffffffffffffffffffffffffffffffffff163182111515156104d457600080fd5b6000809054906101000a900473ffffffffffffffffffffffffffffffffffffffff1673ffffffffffffffffffffffffffffffffffffffff166108fc839081150290604051600060405180830381858888f19350505050151561053557600080fd5b60019050919050565b600080600061054c846103b7565b151561055757600080fd5b600260008673ffffffffffffffffffffffffffffffffffffffff1673ffffffffffffffffffffffffffffffffffffffff168152602001908152602001600020925060009150600090505b811580156105b25750828054905081105b156105ee576105df83828154811015156105c857fe5b906000526020600020906002020160010185610e5a565b915080806001019150506105a1565b8115156105fa57600080fd5b3373ffffffffffffffffffffffffffffffffffffffff16836001830381548110151561062257fe5b906000526020600020906002020160000160009054906101000a900473ffffffffffffffffffffffffffffffffffffffff1673ffffffffffffffffffffffffffffffffffffffff1614806106c257506000809054906101000a900473ffffffffffffffffffffffffffffffffffffffff1673ffffffffffffffffffffffffffffffffffffffff163373ffffffffffffffffffffffffffffffffffffffff16145b15156106cd57600080fd5b82600182038154811015156106de57fe5b9060005260206000209060020201600080820160006101000a81549073ffffffffffffffffffffffffffffffffffffffff02191690556001820160006107249190610fe3565b50506001838054905011156108085782600184805490500381548110151561074857fe5b9060005260206000209060020201836001830381548110151561076757fe5b90600052602060002090600202016000820160009054906101000a900473ffffffffffffffffffffffffffffffffffffffff168160000160006101000a81548173ffffffffffffffffffffffffffffffffffffffff021916908373ffffffffffffffffffffffffffffffffffffffff1602179055506001820181600101908054600181600116156101000203166002900461080392919061102b565b509050505b8280548091906001900361081c91906110b2565b5060006003856040518082805190602001908083835b6020831015156108575780518252602082019150602081019050602083039250610832565b6001836020036101000a038019825116818451168082178552505050505050905001915050908152602001604051809103902060006101000a81548160ff0219169083151502179055508473ffffffffffffffffffffffffffffffffffffffff163373ffffffffffffffffffffffffffffffffffffffff167f17a8b58134fcec218c22d78ee345854100a1e0363dabe4ad1fb60ac7976f16bb866040518080602001828103825283818151815260200191508051906020019080838360005b83811015610931578082015181840152602081019050610916565b50505050905090810190601f16801561095e5780820380516001836020036101000a031916815260200191505b509250505060405180910390a35050505050565b6001548034101515610c15578273ffffffffffffffffffffffffffffffffffffffff163373ffffffffffffffffffffffffffffffffffffffff16141515156109b957600080fd5b6109c2826103b7565b1515156109ce57600080fd5b600260008473ffffffffffffffffffffffffffffffffffffffff1673ffffffffffffffffffffffffffffffffffffffff1681526020019081526020016000208054806001018281610a1f91906110b2565b9160005260206000209060020201600060408051908101604052803373ffffffffffffffffffffffffffffffffffffffff16815260200186815250909190915060008201518160000160006101000a81548173ffffffffffffffffffffffffffffffffffffffff021916908373ffffffffffffffffffffffffffffffffffffffff1602179055506020820151816001019080519060200190610ac29291906110e4565b5050505060016003836040518082805190602001908083835b602083101515610b005780518252602082019150602081019050602083039250610adb565b6001836020036101000a038019825116818451168082178552505050505050905001915050908152602001604051809103902060006101000a81548160ff0219169083151502179055508273ffffffffffffffffffffffffffffffffffffffff163373ffffffffffffffffffffffffffffffffffffffff167fe98869eff5832008d971ae0f57ac965902af379423758a0267405d3a63b8cf57846040518080602001828103825283818151815260200191508051906020019080838360005b83811015610bda578082015181840152602081019050610bbf565b50505050905090810190601f168015610c075780820380516001836020036101000a031916815260200191505b509250505060405180910390a35b505050565b6000809054906101000a900473ffffffffffffffffffffffffffffffffffffffff1673ffffffffffffffffffffffffffffffffffffffff163373ffffffffffffffffffffffffffffffffffffffff16141515610c7557600080fd5b8060018190555050565b6000610c89611164565b600083600260008773ffffffffffffffffffffffffffffffffffffffff1673ffffffffffffffffffffffffffffffffffffffff16815260200190815260200160002080549050111515610cdb57600080fd5b600260008673ffffffffffffffffffffffffffffffffffffffff1673ffffffffffffffffffffffffffffffffffffffff16815260200190815260200160002084815481101515610d2757fe5b906000526020600020906002020190508060000160009054906101000a900473ffffffffffffffffffffffffffffffffffffffff1681600101808054600181600116156101000203166002900480601f016020809104026020016040519081016040528092919081815260200182805460018160011615610100020316600290048015610df55780601f10610dca57610100808354040283529160200191610df5565b820191906000526020600020905b815481529060010190602001808311610dd857829003601f168201915b5050505050905092509250509250929050565b60015481565b6000600260008373ffffffffffffffffffffffffffffffffffffffff1673ffffffffffffffffffffffffffffffffffffffff168152602001908152602001600020805490509050919050565b600080610e65611178565b6000859250849150815183805460018160011615610100020316600290049050141515610e955760009350610fda565b600090505b82805460018160011615610100020316600290049050811015610fd5578181815181101515610ec557fe5b9060200101517f010000000000000000000000000000000000000000000000000000000000000090047f0100000000000000000000000000000000000000000000000000000000000000027effffffffffffffffffffffffffffffffffffffffffffffffffffffffffffff191683828154600181600116156101000203166002900481101515610f5157fe5b815460011615610f705790600052602060002090602091828204019190065b9054901a7f0100000000000000000000000000000000000000000000000000000000000000027effffffffffffffffffffffffffffffffffffffffffffffffffffffffffffff1916141515610fc85760009350610fda565b8080600101915050610e9a565b600193505b50505092915050565b50805460018160011615610100020316600290046000825580601f106110095750611028565b601f016020900490600052602060002090810190611027919061118c565b5b50565b828054600181600116156101000203166002900490600052602060002090601f016020900481019282601f1061106457805485556110a1565b828001600101855582156110a157600052602060002091601f016020900482015b828111156110a0578254825591600101919060010190611085565b5b5090506110ae919061118c565b5090565b8154818355818115116110df576002028160020283600052602060002091820191016110de91906111b1565b5b505050565b828054600181600116156101000203166002900490600052602060002090601f016020900481019282601f1061112557805160ff1916838001178555611153565b82800160010185558215611153579182015b82811115611152578251825591602001919060010190611137565b5b509050611160919061118c565b5090565b602060405190810160405280600081525090565b602060405190810160405280600081525090565b6111ae91905b808211156111aa576000816000905550600101611192565b5090565b90565b61120491905b8082111561120057600080820160006101000a81549073ffffffffffffffffffffffffffffffffffffffff02191690556001820160006111f79190610fe3565b506002016111b7565b5090565b905600a165627a7a72305820af4f97af76aa390429af2b1b6a341061972cf1d01fd81913118fbf6fb020ca4c0029",
  "source": "pragma solidity ^0.4.16;\n\n// This is the main contract of our dApp\n// It stores the association between users (Ethereum addresses) with their certificates (IPFS hashes)\n\ncontract UserCertificates {\n\n\t//A certificate is represented by issuer and hash in IPFS\n\tstruct Certificate {\n\t\taddress issuer;\n\t\tstring ipfsHash;\n\t}\n\n\taddress private owner;\n\tuint public price;\n\tmapping (address => Certificate[]) private userCertificates;\n\tmapping (string => bool) private certificates;\n\n\tmodifier onlyOwner {\n\t\trequire(msg.sender == owner);\n\t\t_;\n\t}\n\n\tmodifier costs(uint _price) {\n\t\tif (msg.value >= _price) {\n\t\t\t_;\n\t\t}\n\t}\n\n\t//Equal function for 2 strings. Research: this could be more efficient by comparing their hashes\n\tfunction stringsEqual(string storage _a, string memory _b) internal returns (bool) {\n\t\tbytes storage a = bytes(_a);\n\t\tbytes memory b = bytes(_b);\n\t\t\n\t\tif (a.length != b.length) {\n\t\t\treturn false;\n\t\t}\n\t\t\n\t\t// @todo unroll this loop\n\t\tfor (uint i = 0; i < a.length; i ++) {\n\t\t\tif (a[i] != b[i]) {\n\t\t\t\treturn false;\n\t\t\t}\n\t\t}\n\t\treturn true;\n\t}\n\n\tevent CertificateIssued(address indexed _from, address indexed _to, string _ipfsHash);\n\tevent CertificateRevoked(address indexed _from, address indexed _to, string _ipfsHash);\n\n\tfunction UserCertificates() public {\n\t\towner = msg.sender;\n\t\tprice = 0;//10000000000000000;//wei\n\t}\n\n\t//Set the minimum value to be transfer to create a certificate\n\tfunction setPrice(uint _price) onlyOwner public {\n\t\tprice = _price;\n\t}\n\n\n\t//withdraw funds from contract to owner address\n\tfunction withdrawFunds(uint amount) onlyOwner public returns(bool) {\n\t\trequire(amount <= this.balance);\n\t\towner.transfer(amount);\n\t\treturn true;\n\t}\n\n\t//Checks if certificate with same ipfs hash has been already published\n\tfunction certificateExists(string ipfsHash) public constant returns (bool) {\n\t\tif (certificates[ipfsHash]==true) {\n\t\t\treturn true;\n\t\t} else {\n\t\t\treturn false;\n\t\t}\n\t}\n\n\t//Adds a certificate (sender + hash) to a user\n\tfunction addCertificate(address user, string ipfsHash) public payable costs(price) {\n\n\t\t//check the sender and receiver are different\n\t\trequire (msg.sender != user);\n\n\t\t//check certificate doesn't exist\n\t\trequire(!certificateExists(ipfsHash));\n\n\t\t//add certificate\n\t\tuserCertificates[user].push(Certificate(msg.sender, ipfsHash));\n\t\tcertificates[ipfsHash] = true;\n\n\t\t//trigger event\n\t\tCertificateIssued(msg.sender, user, ipfsHash);\n\t}\n\n\t//Revokes previously added certificate\n\tfunction revokeCertificate(address user, string ipfsHash) public {\n\n\t\t//check certificate exist\n\t\trequire(certificateExists(ipfsHash));\n\n\t\tCertificate[] storage certs = userCertificates[user];\n\n\t\tbool found = false;\n\t\tuint i = 0;\n\n\t\twhile (!found && i<certs.length) {\n\t\t\tfound = (stringsEqual(certs[i].ipfsHash, ipfsHash));\n\t\t\ti++;\n\t\t}\t\t\n\n\t\trequire(found);//exists\n\t\trequire(certs[i-1].issuer == msg.sender || msg.sender == owner);//being revoked for same issuer or owner\n\n\t\tdelete certs[i-1];\n\t\tif (certs.length > 1) {\n\t\t\tcerts[i-1] = certs[certs.length-1];//fill the gap\n\t\t}\n\n\t\tcerts.length--;\n\t\tcertificates[ipfsHash] = false;\n\n\t\tCertificateRevoked(msg.sender, user, ipfsHash);\n\t}\n\n\t//Return the number of certificates associated to user\n\tfunction getNumberCertificatesUser(address user) public constant returns (uint) {\n\t\treturn userCertificates[user].length;\n\t}\n\n\t//Returns certificate for user in specific index position. This is neccesary because currently it is not possible to return array of strings\n\tfunction getUserCertificateAtIndex(address user, uint256 index) public constant returns (address, string) {\n\t\trequire(userCertificates[user].length>index);\n\n\t\tCertificate storage cert = userCertificates[user][index];\n\t\treturn (cert.issuer, cert.ipfsHash);\n\t}\n}",
  "sourcePath": "/home/guillermo/devs/certifications-app/truffle/contracts/UserCertificates.sol",
  "compiler": {
    "name": "solc",
    "version": "0.4.19+commit.c4cbbb05.Emscripten.clang"
  },
  "schemaVersion": "1.0.1",
  "updatedAt": "2018-02-19T12:34:25.056Z"
}